:100000000C9434000C9421020C9451000C94510077
:100010000C9451000C9451000C9451000C9451001C
:100020000C9451000C9451000C9451000C9451000C
:100030000C9451000C9451000C9451000C945100FC
:100040000C9451000C9451000C9451000C945100EC
:100050000C945100FEFDFBF73738392F3435362A22
:100060003132332D43303D2B11241FBECFE5D4E078
:10007000DEBFCDBF10E0A0E6B0E0E6E9F4E002C0EC
:1000800005900D92A03BB107D9F710E0A0EBB0E0CE
:1000900001C01D92AC3BB107E1F70E94FE000C9439
:1000A00049020C9400008BBBC09AC198C29A81E0AF
:1000B0008A95F1F7C2988AEF90E00197F1F70895D9
:1000C0008BBBC098C198C29A81E08A95F1F7C2981B
:1000D0008EEE92E00197F1F70895CF93DF93EC0154
:1000E00002C00E94530089918823D9F7DF91CF91F4
:1000F0000895CF93DF93EA01882331F460316CF4E3
:100100006F70862F806807C0813039F460312CF41D
:100110006F70862F806C0E946000CE010E946D007F
:10012000DF91CF91089580EC0E94600008958FEFD9
:100130008ABB87E087BB88E893E10197F1F788E302
:100140000E9460008CE00E94600086E00E946000D7
:1001500081E00E94600084EF91E00197F1F780E870
:100160000E946000089582E00E946000089581E08E
:100170000E94600080E80E946000089580E48BBFC8
:1001800085B7826085BF7894089520E030E068E804
:1001900073E1F901EC5AFF4FE491E5BB9C9903C070
:1001A00040E050E002C04FEF5FEF9D9902C041E098
:1001B00050E09E9902C042E050E09F9903C043E0A6
:1001C00050E004C08FEF4F3F580769F080EF85BBC8
:1001D000220F331F220F331F240F351F285A3F4F82
:1001E000F90184910895CB010197F1F72F5F3F4FFB
:1001F0002430310571F680EF85BB089580E48BBF14
:1002000085B7826085BF78940E9497008FE084BB99
:1002100081B3886181BB80EF85BB0E94B70080E617
:1002200090E00E946D000E9493008FEF9FEF9093EB
:10023000B9008093B800FFCFCF93DF9381E0809324
:10024000BB0040E050E0C4EAD0E01BC060E020E02A
:1002500030E0FA01EC54FF4FDA01AC55BF4F90810A
:100260008C91981711F421E030E08091BB0090E070
:1002700028233923232B09F061E06093BB004F5FF3
:100280005F4FFE0101900020E9F73197E45AF040FA
:100290004E175F07D8F240E050E0CFE9D0E01BC036
:1002A00060E020E030E0FA01E055FF4FDA01A156AE
:1002B000BF4F90818C91981711F421E030E080912C
:1002C000BB0090E028233923232B09F061E06093E1
:1002D000BB004F5F5F4FFE0101900020E9F73197AF
:1002E000EF59F0404E175F07D8F2DF91CF91089594
:1002F0008091BA002091B8003091B9008823D9F5D7
:100300002F5F3F4F21F41092B9001092B8000E9465
:10031000C5002091B8003091B900F901E055FF4FB8
:1003200080832F5F3F4F3093B9002093B8000E9425
:100330005300EFE9F0E001900020E9F73197EF5921
:10034000F0408091B8009091B9008E179F0708F493
:1003500077C00E94B7008FE690E00E946D000E9477
:10036000930081E08093BA008FEF9FEF9093B900E4
:100370008093B80008952F5F3F4F21F41092B90089
:100380001092B8000E94C5002091B8003091B900C9
:10039000F901EC54FF4F80832F5F3F4F3093B9003A
:1003A0002093B8008AE20E945300E4EAF0E0019052
:1003B0000020E9F73197E45AF0408091B80090911D
:1003C000B9008E179F0708F43BC00E941C01809162
:1003D000BB008823A1F0939A0E94B7008FE790E0BA
:1003E0000E946D0080E197E229E130E0F901319748
:1003F000F1F70197D9F793980E94B7001BC0949A20
:100400000E94B70080E990E00E946D0080E197E2D1
:1004100029E130E0F9013197F1F70197D9F7949884
:100420001092BA000E94B70080E690E00E946D0032
:100430000E9493008FEF9FEF9093B9008093B800D4
:1004400008951F920F920FB60F9211242F933F938E
:100450004F935F936F937F938F939F93AF93BF93CC
:10046000EF93FF938091BB00882311F40E947801E1
:10047000FF91EF91BF91AF919F918F917F916F917C
:100480005F914F913F912F910F900FBE0F901F9052
:060490001895F894FFCF5F
:10049600656E74657220796F75722069643A0065BD
:1004A6006E7465722070617373776F72643A00417F
:1004B600636365737320617070726F766564210083
:1004C6004163636573732064656E696564210031F9
:1004D6003131310031313131003031323334350090
:00000001FF
