:100000000C943B000C9458000C9458000C9458002D
:100010000C9458000C9458000C9458000C94580000
:100020000C9458000C9463000C9458000C945800E5
:100030000C9458000C9458000C9458000C945800E0
:100040000C9458000C9458000C9458000C945800D0
:100050000C94580005A84CCDB2D44EB93836A9023C
:100060000C50B9918688083CA6AAAA2ABE000000B6
:10007000803F0905060A11241FBECFE5D4E0DEBF8C
:10008000CDBF11E0A0E6B0E0ECE3F2E102C00590E4
:100090000D92AC36B107D9F711E0ACE6B1E001C082
:1000A0001D92A037B107E1F70E9474000C941C095F
:1000B0000C94000083B7836083BF12BE89B7816050
:1000C00089BF789408951F920F920FB60F92112452
:1000D0008F9380916C018F5F80936C018F910F9053
:1000E0000FBE0F901F901895AF92BF92CF92DF92E4
:1000F000EF92FF920F931F93CF93DF930E945A00CA
:100100008FE08ABB1BBA81E084BBC3E0D0E0609182
:1001100060007091610080916200909163002BED0E
:100120003FE049E450E40E94F70220E030E040E480
:1001300050E40E94F1030E94870710E020E030E0C5
:1001400040E050E00E94CD0488230CF411E01093AD
:100150006F0180916F01882311F0A89A01C0A898BF
:10016000A0906C01609160007091610080916200CC
:10017000909163002BED3FE049E450E40E94F702C8
:1001800020E030E040E450E40E94F1030E94870741
:100190007B018C01BB24CC24B7FCC094DC2CC601B1
:1001A000B5010E94FD045B016C01E89417F9C801D8
:1001B000B70120E030E040E251E40E94F7029B01E9
:1001C000AC01C601B5010E949D0488230CF49FCFA9
:1001D000E0916D01F0916E01EE58FF4FE491EBBBA1
:1001E00010926C0180916F01882331F080916D0134
:1001F00090916E01019705C080916D0190916E0103
:10020000019690936E0180936D0180916D019091A4
:100210006E01049724F010926E0110926D0180918E
:100220006D0190916E0197FF04C0D0936E01C09351
:100230006D01609160007091610080916200909109
:10024000630020E030E040E05DE30E94CA0260937A
:1002500060007093610080936200909363006091EE
:10026000600070916100809162009091630020E0D5
:1002700030E040EC50E40E949D0488230CF447CF0A
:1002800080E090E0A0E0B0E0809360009093610097
:10029000A0936200B09363003ACFA0E0B0E0E3E542
:1002A000F1E00C945007DC012B01FA019C91923093
:1002B00008F439C1EB018881823008F433C19430ED
:1002C00069F4843009F02FC111969C9111978981AE
:1002D000981709F428C1A4E6B0E025C1843009F4D8
:1002E00021C18230A9F4923009F01DC19A01AD01FB
:1002F00088E0EA010990AE01E90109929E0181506E
:10030000C1F7E201898111969C918923818308C1FB
:10031000923009F407C112962D903C901397EB018F
:100320008A819B811496AD90BD90CD90DC901797FB
:10033000EC80FD800E811F819101281B390BB901D2
:1003400037FF04C066277727621B730B6032710585
:100350000CF061C0121613066CF537014801062E29
:1003600004C096948794779467940A94D2F721E016
:1003700030E040E050E004C0220F331F441F551FFF
:100380006A95D2F721503040404050402E213F2105
:1003900040235123211531054105510521F021E06C
:1003A00030E040E050E079018A01E628F72808298A
:1003B00019293CC0232BD1F1260E371E35014601E9
:1003C000062E04C096948794779467940A94D2F783
:1003D00021E030E040E050E004C0220F331F441F12
:1003E000551F6A95D2F721503040404050402A2195
:1003F0003B214C215D21211531054105510521F09D
:1004000021E030E040E050E059016A01A628B72819
:10041000C828D9280BC0821593052CF01C01AA24EA
:10042000BB24650103C0EE24FF24870111969C9133
:10043000D20111968C91981709F445C0992339F08F
:10044000A80197012A193B094C095D0906C0A601BC
:1004500095012E193F09400B510B57FD08C0118221
:100460003382228224833583468357831DC081E0F3
:1004700081833382228288279927DC01821B930B98
:10048000A40BB50B84839583A683B7830DC0220F7D
:10049000331F441F551F248335834683578382812E
:1004A000938101979383828324813581468157818B
:1004B000DA01C9010197A109B1098F5F9F4FAF4FC1
:1004C000BF4328F30BC0918333822282EA0CFB1CCA
:1004D0000C1D1D1DE482F5820683178383E0808353
:1004E000248135814681578157FF1AC0C901AA2747
:1004F00097FDA095BA2F81709070A070B07056953E
:10050000479537952795822B932BA42BB52B848366
:100510009583A683B7838281938101969383828397
:10052000DF0101C0D201CD01CDB7DEB7E2E10C940D
:100530006C07A0E2B0E0EFE9F2E00C945C0769839D
:100540007A838B839C832D833E834F835887E9E096
:10055000EE2EF12CEC0EFD1ECE010196B7010E948D
:100560007F068E010F5E1F4FCE010596B8010E94D7
:100570007F068A8991E089278A8BC701B801AE017D
:10058000475E5F4F0E944D010E94AA05A096E6E0DB
:100590000C947807A0E2B0E0E0EDF2E00C945C0788
:1005A00069837A838B839C832D833E834F83588713
:1005B000F9E0EF2EF12CEC0EFD1ECE010196B701F5
:1005C0000E947F068E010F5E1F4FCE010596B80177
:1005D0000E947F06C701B801AE01475E5F4F0E94CF
:1005E0004D010E94AA05A096E6E00C947807A0E2CF
:1005F000B0E0EDEFF2E00C94500769837A838B83CF
:100600009C832D833E834F835887CE010196BE0184
:10061000675F7F4F0E947F06CE010596BE016F5E29
:100620007F4F0E947F069985923088F089898230B9
:10063000C8F0943019F4823051F404C0843029F4A5
:10064000923081F484E690E0C6C0923049F420E014
:100650009A858A89981321E02A87CE010996BBC022
:10066000823049F420E09A858A89981321E02A8B08
:10067000CE014196B0C02D843E844F8458886D8849
:100680007E888F88988CEE24FF248701AA24BB24BF
:10069000650140E050E060E070E0E0E0F0E0C101C2
:1006A00081709070892BE9F0E60CF71C081D191D6C
:1006B0009A01AB012A0D3B1D4C1D5D1D80E090E0B1
:1006C000A0E0B0E0E614F7040805190520F481E085
:1006D00090E0A0E0B0E0BA01A901480F591F6A1FDD
:1006E0007B1FAA0CBB1CCC1CDD1C97FE08C081E044
:1006F00090E0A0E0B0E0A82AB92ACA2ADB2A319605
:10070000E032F10549F0660C771C881C991C569460
:10071000479437942794C3CFFA85EA892B893C897B
:100720008B859C85280F391F2E5F3F4F17C0CA014C
:1007300081709070892B61F016950795F794E79476
:1007400080E090E0A0E0B0E8E82AF92A0A2B1B2B11
:1007500076956795579547952F5F3F4F77FDE7CF84
:100760000CC0440F551F661F771F17FD4160EE0C2C
:10077000FF1C001F111F21503040403090E05907EE
:1007800090E0690790E4790760F32B8F3C8FDB01E1
:10079000CA018F779070A070B07080349105A10568
:1007A000B10561F447FD0AC0E114F104010511052A
:1007B00029F0405C5F4F6F4F7F4F40781A8EFE17D5
:1007C00011F081E08A8F4D8F5E8F6F8F78A383E069
:1007D000898FCE0149960E94AA05A096E2E10C9469
:1007E0006C07A8E1B0E0E7EFF3E00C9458076983E9
:1007F0007A838B839C832D833E834F835887B9E014
:10080000EB2EF12CEC0EFD1ECE010196B7010E94DD
:100810007F068E010F5E1F4FCE010596B8010E9424
:100820007F062985223008F47EC03989323010F4E1
:10083000B8017CC08A859A8989278A87243011F07B
:10084000223031F4231709F06EC064E670E06EC008
:10085000343039F41D861E861F86188A1C861B8636
:1008600004C0323021F484E08987B7015FC02B8552
:100870003C858B899C89281B390B3C872B87ED8411
:10088000FE840F851889AD88BE88CF88D88CEA147D
:10089000FB040C051D0540F4EE0CFF1C001F111F8E
:1008A000215030403C872B8720E030E040E050E092
:1008B00080E090E0A0E0B0E460E070E0EA14FB04C7
:1008C0000C051D0540F0282B392B4A2B5B2BEA1811
:1008D000FB080C091D09B695A79597958795EE0C11
:1008E000FF1C001F111F6F5F7F4F6F31710531F7C4
:1008F000DA01C9018F779070A070B07080349105D3
:10090000A105B10561F427FD0AC0E114F104010558
:10091000110529F0205C3F4F4F4F5F4F20782D8706
:100920003E874F87588BBE01675F7F4FCB010E9488
:10093000AA056896EAE00C947407A8E1B0E0E3EA3F
:10094000F4E00C945C0769837A838B839C832D830A
:100950003E834F83588789E0E82EF12CEC0EFD1E74
:10096000CE010196B7010E947F068E010F5E1F4FD8
:10097000CE010596B8010E947F068985823040F03D
:100980008989823028F0C701B8010E94F70601C0AA
:100990008FEF6896E6E00C947807A8E1B0E0E3ED0D
:1009A000F4E00C945C0769837A838B839C832D83AA
:1009B0003E834F83588789E0E82EF12CEC0EFD1E14
:1009C000CE010196B7010E947F068E010F5E1F4F78
:1009D000CE010596B8010E947F068985823040F0DD
:1009E0008989823028F0C701B8010E94F70601C04A
:1009F00081E06896E6E00C947807A8E0B0E0E3E0D8
:100A0000F5E00C9459079B01AC0183E08983DA017E
:100A1000C9018827B7FD83959927AA27BB27B82E38
:100A2000211531054105510519F482E089833AC049
:100A30008823A9F0203080E0380780E0480780E86C
:100A4000580729F460E070E080E09FEC30C0EE24AD
:100A5000FF248701E21AF30A040B150B02C0790187
:100A60008A018EE1C82ED12CDC82CB82ED82FE82FF
:100A70000F831887C801B7010E945B0501971816FC
:100A8000190684F4082E04C0EE0CFF1C001F111F71
:100A90000A94D2F7ED82FE820F831887C81AD90A0A
:100AA000DC82CB82BA82CE0101960E94AA052896EA
:100AB000E9E00C947507EF92FF920F931F937B016F
:100AC0008C0180E0E81680E0F80681E0080780E00D
:100AD000180788F48FEFE816F1040105110531F0CD
:100AE00028F088E090E0A0E0B0E017C080E090E05F
:100AF000A0E0B0E012C080E0E81680E0F80680E0F8
:100B0000080781E0180728F088E190E0A0E0B0E055
:100B100004C080E190E0A0E0B0E020E230E040E0FE
:100B200050E0281B390B4A0B5B0B04C01695079548
:100B3000F794E7948A95D2F7F701E459FF4F808143
:100B4000281B310941095109C9011F910F91FF90DB
:100B5000EF900895DF92EF92FF920F931F93FC01A5
:100B6000E480F58006811781D1808081823048F44D
:100B700080E090E0A0E1B0E0E82AF92A0A2B1B2BE4
:100B8000A5C0843009F49FC0823021F4EE24FF24F4
:100B9000870105C0E114F1040105110519F4E0E035
:100BA000F0E096C0628173819FEF623879070CF0A4
:100BB0005BC022E83FEF261B370B2A3131052CF0B2
:100BC00020E030E040E050E02AC0B801A701022E4A
:100BD00004C076956795579547950A94D2F781E0BA
:100BE00090E0A0E0B0E004C0880F991FAA1FBB1FCF
:100BF0002A95D2F70197A109B1098E219F21A0233F
:100C0000B1230097A105B10521F081E090E0A0E0BB
:100C1000B0E09A01AB01282B392B4A2B5B2BDA0170
:100C2000C9018F779070A070B07080349105A105D4
:100C3000B10539F427FF09C0205C3F4F4F4F5F4F8C
:100C400004C0215C3F4F4F4F5F4FE0E0F0E02030A9
:100C5000A0E03A07A0E04A07A0E45A0710F0E1E05C
:100C6000F0E079018A0127C06038710564F5FB0165
:100C7000E158FF4FD801C7018F779070A070B07016
:100C800080349105A105B10539F4E7FE0DC080E47B
:100C900090E0A0E0B0E004C08FE390E0A0E0B0E01E
:100CA000E80EF91E0A1F1B1F17FF05C016950795B2
:100CB000F794E794319687E016950795F794E794B3
:100CC0008A95D1F705C0EE24FF248701EFEFF0E00D
:100CD0006E2F679566276795902F9F77D794DD24B1
:100CE000D7948E2F8695492F462B582F5D29B70113
:100CF000CA011F910F91FF90EF90DF900895FC01C2
:100D0000DB01408151812281622F6F7770E0221FC9
:100D10002227221F9381892F880F822B282F30E0D2
:100D2000991F9927991F11969C93119721153105A9
:100D3000A9F5411551056105710511F482E037C02F
:100D400082E89FEF13969C938E9312979A01AB01C2
:100D500067E0220F331F441F551F6A95D1F783E0C8
:100D60008C930DC0220F331F441F551F12968D9177
:100D70009C911397019713969C938E931297203012
:100D800080E0380780E0480780E4580758F314965D
:100D90002D933D934D935C93179708952F3F310505
:100DA00079F4411551056105710519F484E08C93BE
:100DB000089564FF03C081E08C9312C01C9210C0A0
:100DC0002F57304013963C932E93129783E08C93C9
:100DD00087E0440F551F661F771F8A95D1F770640F
:100DE00014964D935D936D937C93179708951F937D
:100DF000DC01FB019C91923008F447C08081823075
:100E000008F443C0943051F411961C91843099F544
:100E10008181682F70E0611B71093FC0843021F02F
:100E2000923031F48230B9F18181882389F12DC06B
:100E300011961C9111978230F1F081811817D9F425
:100E400012962D913C91139782819381821793077B
:100E500094F028173907BCF014968D919D910D9050
:100E6000BC91A02D248135814681578128173907EF
:100E70004A075B0718F4112341F00AC08217930751
:100E8000A407B50740F4112319F061E070E005C034
:100E90006FEF7FEF02C060E070E0CB011F9108951B
:100EA0002F923F924F925F926F927F928F929F927A
:100EB000AF92BF92CF92DF92EF92FF920F931F9368
:100EC000CF93DF93CDB7DEB7CA1BDB0B0FB6F89419
:100ED000DEBF0FBECDBF09942A88398848885F8459
:100EE0006E847D848C849B84AA84B984C884DF80CA
:100EF000EE80FD800C811B81AA81B981CE0FD11DAE
:100F00000FB6F894DEBF0FBECDBFED0108959F93DD
:100F100005D00F9007FCEE5F28C0CEC03FD0E8F3AD
:100F2000E894E0E0BB279F57F0F02AED3FE049EC62
:100F300006C0EE0FBB0F661F771F881F28F0B23A5E
:100F400062077307840728F0B25A620B730B840B95
:100F5000E3959A9572F7803830F49A95BB0F661F27
:100F6000771F881FD2F790489BC0EF93E0FF06C021
:100F7000A2EA2AED3FE049EC5FEB37D0BFD00F90FB
:100F8000039401FC9058E4E5F0E099C057FD9058B7
:100F9000440F551F59F05F3F71F04795880F97FB3D
:100FA000991F61F09F3F79F08795089512161306F7
:100FB0001406551FF2CF4695F1DF08C01616170626
:100FC0001806991FF1CF869571056105089408955B
:100FD00087D030F08CD020F031F49F3F11F41EF414
:100FE0006BC00EF4E095E7FB53C0E92FCFDF80F331
:100FF000BA17620773078407950718F071F49EF516
:101000008EC00EF4E0950B2EBA2FA02D0B01B90166
:1010100090010C01CA01A0011124FF27591B99F06E
:10102000593F50F4503E68F11A16F040A22F232F7A
:10103000342F4427585FF3CF469537952795A795CA
:10104000F0405395C9F77EF41F16BA0B620B730B71
:10105000840BBAF09150A1F0FF0FBB1F661F771FE2
:10106000881FC2F70EC0BA0F621F731F841F48F497
:10107000879577956795B795F7959E3F08F0B3CF1D
:101080009395880F08F09927EE0F97958795089507
:1010900097F99F6780E870E060E008959F3F31F026
:1010A000915020F4879577956795B795880F911D96
:1010B0009695879597F908959FEF80EC08959F93F3
:1010C0008F937F936F93FF93EF939B01AC018FDA24
:1010D000EF91FF912BD02F913F914F915F9187CA54
:1010E00000240A9416161706180609060895002407
:1010F0000A9412161306140605060895092E039481
:10110000000C11F4882352F0BB0F40F4BF2B11F4F4
:1011100060FF04C06F5F7F4F8F4F9F4F0895E8942B
:10112000BB2766277727CB0197F90895DF93CF93E5
:101130001F930F93FF92EF92DF927B018C016894D3
:1011400005C0DA2EEF0121D0FE01E894A59125918A
:10115000359145915591AEF3EF0147DFFE019701BF
:10116000A801DA9479F7DF90EF90FF900F911F912B
:10117000CF91DF910895B4DF28F0B9DF18F09523FF
:1011800009F086CF99CF1124CBCF00DFA0F3959F34
:10119000D1F3950F50E0551F629FF001729FBB275E
:1011A000F00DB11D639FAA27F00DB11DAA1F649F0A
:1011B0006627B00DA11D661F829F2227B00DA11DBD
:1011C000621F739FB00DA11D621F839FA00D611D43
:1011D000221F749F3327A00D611D231F849F600D64
:1011E000211D822F762F6A2F11249F5750408AF09D
:1011F000E1F088234AF0EE0FFF1FBB1F661F771F29
:10120000881F91505040A9F79E3F510570F040CF84
:1012100087CF5F3FECF3983EDCF386957795679533
:10122000B795F795E7959F5FC1F7FE2B880F911D46
:0C1230009695879597F90895F894FFCFE4
:10123C000000803F000000000000000000010202DE
:10124C000303030304040404040404040505050552
:10125C00050505050505050505050505060606062E
:10126C000606060606060606060606060606060612
:10127C0006060606060606060606060607070707FE
:10128C0007070707070707070707070707070707E2
:10129C0007070707070707070707070707070707D2
:1012AC0007070707070707070707070707070707C2
:1012BC0007070707070707070707070708080808AE
:1012CC000808080808080808080808080808080892
:1012DC000808080808080808080808080808080882
:1012EC000808080808080808080808080808080872
:1012FC000808080808080808080808080808080862
:10130C000808080808080808080808080808080851
:10131C000808080808080808080808080808080841
:10132C000808080808080808080808080808080831
:0C133C0008080808080808080808080845
:00000001FF
