:100000000C9434000C94FB020C9451000C9451009D
:100010000C9451000C9451000C9451000C9451001C
:100020000C9451000C9451000C9451000C943E011E
:100030000C9451000C9451000C9451000C945100FC
:100040000C9451000C9451000C9451000C945100EC
:100050000C945100FEFDFBF73738392F3435362A22
:100060003132332D43303D2B11241FBECFE5D4E078
:10007000DEBFCDBF10E0A0E6B0E0E4E8F6E002C0ED
:1000800005900D92AE3CB107D9F710E0AEECB0E0B0
:1000900001C01D92AC3DB107E1F70E9489010C94AB
:1000A00040030C9400008AB1886D8AB980B58668D7
:1000B00080BD10BC8CE089B908955D9BFECF8CB9E2
:1000C00008958BBBC09AC198C29A81E08A95F1F7D6
:1000D000C2988AEF90E00197F1F708958BBBC09822
:1000E000C198C29A81E08A95F1F7C2988EEE92E0AB
:1000F0000197F1F70895CF93DF93EC0102C00E94BE
:10010000610089918823D9F7DF91CF91089580EC20
:100110000E946E0008958FEF8ABB87E087BB88E856
:1001200093E10197F1F788E30E946E008CE00E9452
:100130006E0086E00E946E0081E00E946E0084EFF7
:1001400091E00197F1F780E80E946E00089582E047
:100150000E946E00089581E00E946E0080E80E9477
:100160006E00089580E48BBF85B7826085BF0895D7
:1001700020E030E068E873E1F901EC5AFF4FE491C8
:10018000E5BB9C9903C040E050E002C04FEF5FEF39
:100190009D9902C041E050E09E9902C042E050E0CB
:1001A0009F9903C043E050E004C08FEF4F3F5807D2
:1001B00069F080EF85BB220F331F220F331F240FFE
:1001C000351F285A3F4FF90184910895CB010197BB
:1001D000F1F72F5F3F4F2430310571F680EF85BB7B
:1001E0000895982F8F3269F08A3259F08D3249F094
:1001F0008B3239F08D3329F080E0933419F081E0AF
:10020000089580E008951F93182F0E94AB0080E6A8
:1002100090E00E947B000E948700112369F1812FEA
:100220000E94F100882359F0812F0E94610080E52F
:1002300093EC0197F1F75D9BFECF1CB915C00E94AE
:10024000AB0089E690E00E947B000E94870088E76F
:1002500090E00E947B0080E197E229E130E0F90123
:100260003197F1F70197D9F70E94AB0080E690E053
:100270000E947B000E9487001F9108951F920F9299
:100280000FB60F9211242F933F934F935F936F9369
:100290007F938F939F93AF93BF93EF93FF9380913F
:1002A000D900882329F18091DA009091DB004E97E4
:1002B0006CF48CB10E9461008091DA009091DB00B7
:1002C00001969093DB008093DA0012C080E29EE4F6
:1002D00029E130E0F9013197F1F70197D9F70E9450
:1002E000AB001092DB001092DA0080E00E94030164
:1002F000FF91EF91BF91AF919F918F917F916F91FE
:100300005F914F913F912F910F900FBE0F901F90D3
:10031000189580E48BBF85B7826085BF0E948B00F3
:100320000E94530078948FE084BB81B3886181BBC5
:1003300080EF85BB8FEF9FEF9093D7008093D6001F
:10034000E199FECF80E090E00E942B0390E0817065
:1003500090708093D80080E090E00E942B0390E0A2
:100360009695879581708093D900882349F40E94DF
:10037000AB0085E890E00E947B000E94870003C0EC
:1003800080E00E940301FFCFCF93DF9381E0809351
:10039000D90040E050E0C9ECD0E01BC060E020E0B4
:1003A00030E0FA01EE52FF4FDA01A753BF4F9081C0
:1003B0008C91981711F421E030E08091D90090E001
:1003C00028233923232B09F061E06093D9004F5F84
:1003D0005F4FFE0101900020E9F73197E95CF040A2
:1003E0004E175F07D8F240E050E0C4ECD0E01BC0ED
:1003F00060E020E030E0FA01E253FF4FDA01AC5355
:10040000BF4F90818C91981711F421E030E08091DA
:10041000D90090E028233923232B09F061E0609371
:10042000D9004F5F5F4FFE0101900020E9F731973F
:10043000E45CF0404E175F07D8F28091D900882322
:10044000A1F080E090E00E942B03682F616080E0C3
:1004500090E00E94330380E090E00E942B03682F1D
:10046000626080E090E00E943303DF91CF910895B5
:100470001F93182F8091D8002091D6003091D7007B
:10048000882309F042C02F5F3F4F21F41092D7001C
:100490001092D600812F0E94F100882309F4A9C090
:1004A0008091D6009091D700FC01E253FF4F10835A
:1004B00001969093D7008093D600812F0E9461000F
:1004C000E4ECF0E001900020E9F73197E45CF040C3
:1004D0008091D6009091D7008E179F0708F489C0AD
:1004E00088E893E129E130E0F9013197F1F70197CC
:1004F000D9F70E94AB0084E990E00E947B000E9443
:10050000870081E08093D8006EC02F5F3F4F21F4B9
:100510001092D7001092D600812F0E94F1008823FC
:1005200009F467C08091D6009091D700FC01EE528B
:10053000FF4F108301969093D7008093D6008AE2F4
:100540000E946100E9ECF0E001900020E9F73197AA
:10055000E95CF0408091D6009091D7008E179F07FC
:1005600008F447C088E893E129E130E0F9013197C8
:10057000F1F70197D9F70E94C4018091D90088232F
:10058000B9F0939A0E94AB0084EA90E00E947B004D
:1005900080E197E229E130E0F9013197F1F7019725
:1005A000D9F793980E94AB0080E00E9403011BC022
:1005B000949A0E94AB0085EB90E00E947B0080E162
:1005C00097E229E130E0F9013197F1F70197D9F786
:1005D00094981092D8000E94AB0085E890E00E94A9
:1005E0007B000E9487008FEF9FEF9093D70080934E
:1005F000D6001F9108951F920F920FB60F921124EB
:100600002F933F934F935F936F937F938F939F931A
:10061000AF93BF93EF93FF930E94B800982F809100
:10062000D900882321F4892F0E94380203C0892F22
:100630000E940301FF91EF91BF91AF919F918F9124
:100640007F916F915F914F913F912F910F900FBECE
:100650000F901F901895E199FECF9FBB8EBBE09A3B
:1006600099278DB30895262FE199FECF9FBB8EBBAE
:100670002DBB0FB6F894E29AE19A0FBE0196089549
:04068000F894FFCF1C
:1006840073746570206E6F3A00696E76616C69648C
:1006940020696E70757421007472792061676169D4
:1006A4006E2E2E2E00656E74657220796F75722021
:1006B40069643A00656E7465722070617373776F54
:1006C40072643A0041636365737320617070726F82
:1006D40076656421004163636573732064656E69A4
:0E06E400656421003131313100313131310096
:00000001FF
