:100000000C942A000C9434000C9434000C943400AA
:100010000C9434000C9434000C9434000C94340090
:100020000C9434000C9434000C9434000C94340080
:100030000C9434000C9434000C9434000C94340070
:100040000C9434000C9434000C9434000C94340060
:100050000C94340011241FBECFE5D4E0DEBFCDBF29
:100060000E9436000C944B000C9400001ABA81E0F8
:100070008BBB8FEF87BB18BA29E130E0C899FECF60
:1000800088B3809588BB88E893E1F9013197F1F74F
:0A0090000197D9F7F3CFF894FFCFE2
:00000001FF
