:100000000C942A000C9434000C9434000C943400AA
:100010000C9434000C9434000C9434000C94340090
:100020000C9434000C9434000C9434000C94340080
:100030000C9434000C9434000C9434000C94340070
:100040000C9434000C9434000C9434000C94340060
:100050000C94340011241FBECFE5D4E0DEBFCDBF29
:100060000E9436000C9475000C9400001ABA81E0CE
:100070008BBB8FEF87BB18BAA1E0B0E069E170E0FD
:10008000C899FECF40E050E028B3CD01042E02C055
:10009000880F991F0A94E2F7282B28BB88EB9BE076
:1000A000FB013197F1F70197D9F74F5F5F4F483068
:1000B000510551F747E050E028B3CD01042E02C0AE
:1000C000880F991F0A94E2F78095822388BB88EBFA
:1000D0009BE0FB013197F1F70197D9F74150504070
:0E00E0008FEF4F3F580741F7CBCFF894FFCF7B
:00000001FF
