:100000000C942A000C9434000C9434000C943400AA
:100010000C9434000C9434000C9434000C94340090
:100020000C9434000C9434000C9434000C94340080
:100030000C9434000C9434000C9434000C94340070
:100040000C9434000C9434000C9434000C94340060
:100050000C94340011241FBECFE5D4E0DEBFCDBF29
:100060000E9436000C944C000C94000081E08ABB86
:1000700028E833E161E049E150E005C0CA01019799
:10008000F1F72150304021153105C1F78BB3862798
:0C0090008BBB28E833E1F2CFF894FFCFDF
:00000001FF
