:100000000C942F000C9439000C9439000C94390096
:100010000C9439000C9439000C9439000C9439007C
:100020000C9439000C9439000C9439000C9439006C
:100030000C9439000C9439000C9439000C9439005C
:100040000C9439000C9439000C9439000C9439004C
:100050000C9439003F065B4F666D7D077F6F11245E
:100060001FBECFE5D4E0DEBFCDBF0E9449000C9497
:1000700017010C9400008EB582608EBD8EB5816034
:100080008EBD1DBC1CBC089583B7836083BF12BEA8
:1000900008956F927F928F929F92AF92BF92CF926C
:1000A000DF92EF92FF920F931F93CF93DF938FEF27
:1000B00081BB8FE084BB8EEF85BB83B7836083BF3A
:1000C00012BE8EB582608EBD8EB581608EBD1DBCA8
:1000D0001CBC88249924EE24FF24CC24DD24AA24EB
:1000E000BB2401E010E0E7E5F0E074909EEF692E9C
:1000F00082B78C3950F10830110530F4000F111F10
:10010000802F809585BB03C065BA01E010E072BA0C
:1001100000FF05C0F401EC5AFF4FE491E2BB01FF80
:1001200005C0F701EC5AFF4FE491E2BB02FF05C0A6
:10013000F601EC5AFF4FE491E2BB03FF05C0F50165
:10014000EC5AFF4FE491E2BB12BE8CB59DB58950CD
:100150009D4370F2F4013196CF016AE070E00E9495
:1001600003019B012E0D3F1DCF016AE070E00E944C
:100170000301EC014C01C9016AE070E00E94030137
:10018000FB01EC0DFD1DC9016AE070E00E94030156
:100190007C01CF016AE070E00E940301A60EB71E49
:1001A000CF016AE070E00E9403019C016C0140E015
:1001B00050E089E0E816F10411F441E050E080E0FD
:1001C00090E0299711F481E090E04823592380E0E2
:1001D00099E0A916B10409F481E090E029303105D5
:1001E00009F491E0892390E048235923452B41F0FD
:1001F00088249924EE24FF24CC24DD24AA24BB24C3
:100200001DBC1CBC75CFAA1BBB1B51E107C0AA1F9C
:10021000BB1FA617B70710F0A61BB70B881F991FA7
:100220005A95A9F780959095BC01CD010895F89451
:02023000FFCFFE
:00000001FF
