:100000000C942F000C944C000C944C000C944C005D
:100010000C944C000C944C000C944C000C944C0030
:100020000C944C000C94B6000C944C000C944C00B6
:100030000C944C000C944C000C944C000C944C0010
:100040000C944C000C944C000C944C000C944C0000
:100050000C944C0030313233343536373839112472
:100060001FBECFE5D4E0DEBFCDBF11E0A0E6B0E01B
:10007000E6EDF3E102C005900D92A639B107D9F77C
:1000800011E0A6E9B1E001C01D92A739B107E1F77F
:100090000E94C7000C94E9090C94000083B78360A8
:1000A00083BF12BE89B7816089BF7894089587E8BD
:1000B00086B980E487B908958770806487B9369AD5
:1000C000349BFECF349A8AEF90E00197F1F724B188
:1000D00035B1C901089585BB909A9198929A81E0B3
:1000E0008A95F1F7929884EF91E00197F1F70895DE
:1000F00085BB90989198929A81E08A95F1F79298B1
:1001000084EF91E00197F1F7089588E893E1019772
:10011000F1F788E30E9478008CE00E94780086E086
:100120000E94780081E00E94780084EF91E00197BE
:10013000F1F780E80E94780008950F931F93CF9302
:10014000DF938C0181E00E947800C0E0D0E0F801EC
:10015000EC0FFD1F80810E946B002196C031D105FC
:10016000B1F7DF91CF911F910F9108951F920F92D8
:100170000FB60F9211248F93809196018F5F809319
:1001800096018F910F900FBE0F901F9018952F9290
:100190003F924F925F926F927F928F929F92AF9217
:1001A000BF92CF92DF92EF92FF920F931F93DF9354
:1001B000CF93CDB7DEB7A0970FB6F894DEBF0FBED2
:1001C000CDBF8FEF84BB8FE081BB1ABA8EE18BBBB2
:1001D0000E94850087E886B980E487B90E944E00B6
:1001E0005E010894A11CB11C30E6432E30E0532E72
:1001F0002FED622E712C99E1892E912C81E1282E10
:10020000312C2C0E3D1E00918B0010918C00B801FA
:10021000882777FD8095982F0E946A049B01AC0186
:10022000C701B6010E940A0418160CF4939A609153
:10023000890070918A00882777FD8095982F0E9409
:100240006A049B01AC01C701B6010E943A048823ED
:100250000CF49398C99934C0C801019690938C000E
:1002600080938B002DB73EB7285030400FB6F894DE
:100270003EBF0FBE2DBFEDB7FEB73196ADB7BEB7CF
:100280001296BC92AE9211975382428295838483D8
:10029000778266820E944807EDB7FEB738960FB6A0
:1002A000F894FEBF0FBEEDBFC5010E949D0088E817
:1002B00093E1F4013197F1F70197D9F7C99BFECF8C
:1002C000CA9937C080918B0090918C0001979093D0
:1002D0008C0080938B002DB73EB7285030400FB66E
:1002E000F8943EBF0FBE2DBFEDB7FEB73196ADB748
:1002F000BEB71296BC92AE921197538242829583FA
:100300008483778266820E944807EDB7FEB73896ED
:100310000FB6F894FEBF0FBEEDBFC5010E949D0051
:1003200088E893E1F4013197F1F70197D9F7CA9B77
:10033000FECFCB9937C08091890090918A000196B9
:1003400090938A00809389002DB73EB728503040A3
:100350000FB6F8943EBF0FBE2DBFEDB7FEB7319676
:10036000ADB7BEB71296BC92AE921197538242823D
:1003700095838483778266820E944807EDB7FEB733
:1003800038960FB6F894FEBF0FBEEDBFC5010E94B0
:100390009D0088E893E1F4013197F1F70197D9F7CF
:1003A000CB9BFECFCC9937C08091890090918A0079
:1003B000019790938A00809389002DB73EB728500B
:1003C00030400FB6F8943EBF0FBE2DBFEDB7FEB75D
:1003D0003196ADB7BEB71296BC92AE9211975382CA
:1003E000428295838483778266820E944807EDB7B4
:1003F000FEB738960FB6F894FEBF0FBEEDBFC5012D
:100400000E949D0088E893E1F4013197F1F701978C
:10041000D9F7CC9BFECF809196018D3308F4F3CEB3
:1004200080E00E945C00AA2797FDA095BA2FBC012E
:10043000CD010E946A0426EF38E24CE950E40E94A4
:10044000640220E030E040E251E40E945E036B0170
:100450007C012DB73EB7285030400FB6F8943EBF10
:100460000FBE2DBF0DB71EB70F5F1F4FADB7BEB785
:1004700012963C922E92119724E730E0F8013383D4
:1004800022830E94C804D80115967C936E9314971A
:1004900017967C926E9216970E944807EDB7FEB7AA
:1004A00038960FB6F894FEBF0FBEEDBFC1010E9493
:1004B0009D0088E893E1F4013197F1F70197D9F7AE
:1004C00012BE109296019FCEA0E2B0E0EAE6F2E002
:1004D0000C94110769837A838B839C832D833E83DD
:1004E0004F835887CE010196BE01675F7F4F0E9400
:1004F0004006CE010596BE016F5E7F4F0E9440060A
:100500009985923088F089898230C8F0943019F446
:10051000823051F404C0843029F4923081F48DE8A3
:1005200090E0C6C0923049F420E09A858A899813F9
:1005300021E02A87CE010996BBC0823049F420E031
:100540009A858A89981321E02A8BCE014196B0C002
:100550002D843E844F8458886D887E888F88988C3F
:10056000EE24FF248701AA24BB24650140E050E06B
:1005700060E070E0E0E0F0E0C10181709070892BF4
:10058000E9F0E60CF71C081D191D9A01AB012A0DB4
:100590003B1D4C1D5D1D80E090E0A0E0B0E0E61446
:1005A000F7040805190520F481E090E0A0E0B0E030
:1005B000BA01A901480F591F6A1F7B1FAA0CBB1C57
:1005C000CC1CDD1C97FE08C081E090E0A0E0B0E00C
:1005D000A82AB92ACA2ADB2A3196E032F10549F065
:1005E000660C771C881C991C569447943794279462
:1005F000C3CFFA85EA892B893C898B859C85280F96
:10060000391F2E5F3F4F17C0CA0181709070892B30
:1006100061F016950795F794E79480E090E0A0E0EC
:10062000B0E8E82AF92A0A2B1B2B7695679557958F
:1006300047952F5F3F4F77FDE7CF0CC0440F551F05
:10064000661F771F17FD4160EE0CFF1C001F111F76
:1006500021503040403090E0590790E0690790E425
:10066000790760F32B8F3C8FDB01CA018F77907085
:10067000A070B07080349105A105B10561F447FD0B
:100680000AC0E114F1040105110529F0405C5F4F37
:100690006F4F7F4F40781A8EFE1711F081E08A8FDE
:1006A0004D8F5E8F6F8F78A383E0898FCE0149963F
:1006B0000E946B05A096E2E10C942D07A8E1B0E042
:1006C000E4E6F3E00C94190769837A838B839C83B7
:1006D0002D833E834F835887B9E0EB2EF12CEC0E2F
:1006E000FD1ECE010196B7010E9440068E010F5EED
:1006F0001F4FCE010596B8010E9440062985223081
:1007000008F47EC03989323010F4B8017CC08A8583
:100710009A8989278A87243011F0223031F42317EF
:1007200009F06EC06DE870E06EC0343039F41D869B
:100730001E861F86188A1C861B8604C0323021F450
:1007400084E08987B7015FC02B853C858B899C89B4
:10075000281B390B3C872B87ED84FE840F85188975
:10076000AD88BE88CF88D88CEA14FB040C051D0523
:1007700040F4EE0CFF1C001F111F215030403C873D
:100780002B8720E030E040E050E080E090E0A0E007
:10079000B0E460E070E0EA14FB040C051D0540F0D5
:1007A000282B392B4A2B5B2BEA18FB080C091D0957
:1007B000B695A79597958795EE0CFF1C001F111F06
:1007C0006F5F7F4F6F31710531F7DA01C9018F77A4
:1007D0009070A070B07080349105A105B10561F4EE
:1007E00027FD0AC0E114F1040105110529F0205C80
:1007F0003F4F4F4F5F4F20782D873E874F87588B55
:10080000BE01675F7F4FCB010E946B056896EAE0EF
:100810000C943507A8E1B0E0E0E1F4E00C941D078A
:1008200069837A838B839C832D833E834F83588790
:1008300089E0E82EF12CEC0EFD1ECE010196B701E9
:100840000E9440068E010F5E1F4FCE010596B80133
:100850000E9440068985823040F08989823028F0E4
:10086000C701B8010E94B80601C08FEF6896E6E0A4
:100870000C943907A8E1B0E0E0E4F4E00C941D0723
:1008800069837A838B839C832D833E834F83588730
:1008900089E0E82EF12CEC0EFD1ECE010196B70189
:1008A0000E9440068E010F5E1F4FCE010596B801D3
:1008B0000E9440068985823040F08989823028F084
:1008C000C701B8010E94B80601C081E06896E6E061
:1008D0000C943907A8E0B0E0E0E7F4E00C941A07C4
:1008E0009B01AC0183E08983DA01C9018827B7FD48
:1008F00083959927AA27BB27B82E211531054105D5
:10090000510519F482E089833AC08823A9F0203088
:1009100080E0380780E0480780E8580729F460E065
:1009200070E080E09FEC30C0EE24FF248701E21AE3
:10093000F30A040B150B02C079018A018EE1C82E5F
:10094000D12CDC82CB82ED82FE820F831887C80116
:10095000B7010E941C0501971816190684F4082E89
:1009600004C0EE0CFF1C001F111F0A94D2F7ED8289
:10097000FE820F831887C81AD90ADC82CB82BA821A
:10098000CE0101960E946B052896E9E00C9436078B
:10099000ACE0B0E0EEECF4E00C94210769837A83DC
:1009A0008B839C83CE010196BE016B5F7F4F0E94BB
:1009B00040068D81823061F1823050F1843021F423
:1009C0008E81882351F12EC02F81388537FD20C0BC
:1009D0006E812F3131051CF06623F9F023C08EE1C2
:1009E00090E0821B930B29853A854B855C8504C07A
:1009F00056954795379527958A95D2F76623B1F096
:100A000050954095309521953F4F4F4F5F4F0EC009
:100A100020E030E040E050E009C02FEF3FEF4FEF23
:100A20005FE704C020E030E040E050E8B901CA01CF
:100A30002C96E2E00C943D07EF92FF920F931F93E8
:100A40007B018C0180E0E81680E0F80681E0080771
:100A500080E0180788F48FEFE816F104010511050E
:100A600031F028F088E090E0A0E0B0E017C080E02E
:100A700090E0A0E0B0E012C080E0E81680E0F80668
:100A800080E0080781E0180728F088E190E0A0E006
:100A9000B0E004C080E190E0A0E0B0E020E230E00F
:100AA00040E050E0281B390B4A0B5B0B04C0169545
:100AB0000795F794E7948A95D2F7F701EB56FF4F25
:100AC0008081281B310941095109C9011F910F91EA
:100AD000FF90EF900895DF92EF92FF920F931F9394
:100AE000FC01E480F58006811781D180808182300D
:100AF00048F480E090E0A0E1B0E0E82AF92A0A2B6F
:100B00001B2BA5C0843009F49FC0823021F4EE2451
:100B1000FF24870105C0E114F1040105110519F452
:100B2000E0E0F0E096C0628173819FEF6238790760
:100B30000CF05BC022E83FEF261B370B2A31310552
:100B40002CF020E030E040E050E02AC0B801A701DE
:100B5000022E04C076956795579547950A94D2F76B
:100B600081E090E0A0E0B0E004C0880F991FAA1FC8
:100B7000BB1F2A95D2F70197A109B1098E219F21A8
:100B8000A023B1230097A105B10521F081E090E0F9
:100B9000A0E0B0E09A01AB01282B392B4A2B5B2B4C
:100BA000DA01C9018F779070A070B0708034910520
:100BB000A105B10539F427FF09C0205C3F4F4F4F15
:100BC0005F4F04C0215C3F4F4F4F5F4FE0E0F0E0CC
:100BD0002030A0E03A07A0E04A07A0E45A0710F04E
:100BE000E1E0F0E079018A0127C06038710564F521
:100BF000FB01E158FF4FD801C7018F779070A070BB
:100C0000B07080349105A105B10539F4E7FE0DC03F
:100C100080E490E0A0E0B0E004C08FE390E0A0E0CA
:100C2000B0E0E80EF91E0A1F1B1F17FF05C016953E
:100C30000795F794E794319687E016950795F79412
:100C4000E7948A95D1F705C0EE24FF248701EFEFE2
:100C5000F0E06E2F679566276795902F9F77D79462
:100C6000DD24D7948E2F8695492F462B582F5D294A
:100C7000B701CA011F910F91FF90EF90DF90089587
:100C8000FC01DB01408151812281622F6F7770E08E
:100C9000221F2227221F9381892F880F822B282F22
:100CA00030E0991F9927991F11969C931197211550
:100CB0003105A9F5411551056105710511F482E071
:100CC00037C082E89FEF13969C938E9312979A01F8
:100CD000AB0167E0220F331F441F551F6A95D1F700
:100CE00083E08C930DC0220F331F441F551F1296B3
:100CF0008D919C911397019713969C938E931297C5
:100D0000203080E0380780E0480780E4580758F337
:100D100014962D933D934D935C93179708952F3F11
:100D2000310579F4411551056105710519F484E027
:100D30008C93089564FF03C081E08C9312C01C92D1
:100D400010C02F57304013963C932E93129783E098
:100D50008C9387E0440F551F661F771F8A95D1F744
:100D6000706414964D935D936D937C9317970895DB
:100D70001F93DC01FB019C91923008F447C08081F5
:100D8000823008F443C0943051F411961C918430A1
:100D900099F58181682F70E0611B71093FC0843033
:100DA00021F0923031F48230B9F18181882389F1C8
:100DB0002DC011961C9111978230F1F08181181786
:100DC000D9F412962D913C911397828193818217C9
:100DD000930794F028173907BCF014968D919D91D4
:100DE0000D90BC91A02D2481358146815781281713
:100DF00039074A075B0718F4112341F00AC082172C
:100E00009307A407B50740F4112319F061E070E0DF
:100E100005C06FEF7FEF02C060E070E0CB011F9173
:100E200008952F923F924F925F926F927F928F928E
:100E30009F92AF92BF92CF92DF92EF92FF920F9369
:100E40001F93CF93DF93CDB7DEB7CA1BDB0B0FB673
:100E5000F894DEBF0FBECDBF09942A883988488830
:100E60005F846E847D848C849B84AA84B984C884C6
:100E7000DF80EE80FD800C811B81AA81B981CE0FBD
:100E8000D11D0FB6F894DEBF0FBECDBFED010895A2
:100E9000AEE0B0E0EEE4F7E00C941F070D891E8988
:100EA00086E08C831A8309838FEF9FE79E838D836F
:100EB0009E01275E3F4FCE0101966F89788DA90173
:100EC0000E946C072F813885020F131FF8011082D2
:100ED0002E96E4E00C943B07ABE0B0E0E2E7F7E0ED
:100EE0000C9411073C012B015A01FC011782168258
:100EF000838181FD03C06FEF7FEFC6C19AE0892E29
:100F00001E010894211C311CF3012381F20123FDF1
:100F1000859123FF81912F01882309F4B2C1853285
:100F200039F423FD859123FF81912F01853229F426
:100F300090E0B3010E945F09E7CF982FFF24EE24D1
:100F40009924FFE1FF15D0F09B3269F09C3228F420
:100F5000903259F0933291F40EC09D3249F09033A3
:100F600069F441E024C052E0F52A84E0F82A28C060
:100F700098E0F92A25C0E0E1FE2A22C0F7FC29C04A
:100F8000892F80538A3070F4F6FE05C0989C902C0F
:100F90001124980E15C0E89CE02C1124E80EF0E214
:100FA000FF2A0EC09E3229F4F6FC6BC140E4F42AFD
:100FB00007C09C3619F450E8F52A02C0983649F467
:100FC000F20123FD959123FF91912F01992309F0BF
:100FD000B8CF892F8554833018F08052833038F48D
:100FE00044E050E0A40EB51E5FE359830FC0933672
:100FF00031F0933779F0933509F056C020C0F501F0
:101000008081898342E050E0A40EB51E610101E0B9
:1010100010E012C0F501C080D180F6FC03C06FEF74
:101020007FEF02C0692D70E042E050E0A40EB51ED3
:10103000C6010E9454098C015FE7F52214C0F50136
:10104000C080D180F6FC03C06FEF7FEF02C0692D36
:1010500070E042E050E0A40EB51EC6010E944909AE
:101060008C0150E8F52AF3FE07C01AC080E290E038
:10107000B3010E945F09EA948E2D90E008171907CA
:10108000A8F30EC0F601F7FC8591F7FE81916F0180
:1010900090E0B3010E945F09E110EA940150104012
:1010A0000115110579F7EAC0943611F0993669F502
:1010B000F7FE08C0F501208131814281538184E02F
:1010C00090E00AC0F501808191819C01442737FDA1
:1010D0004095542F82E090E0A80EB91E9FE6F922B9
:1010E00057FF09C050954095309521953F4F4F4F80
:1010F0005F4FE0E8FE2ACA01B901A1012AE030E011
:101100000E948B09D82ED21840C0953729F41F2D84
:101110001F7E2AE030E01DC01F2D197F9F3661F031
:10112000903720F4983509F0ACC00FC0903739F0F3
:10113000983709F0A6C004C028E030E00AC010616A
:1011400014FD146020E130E004C014FD166020E1BD
:1011500032E017FF08C0F5016081718182819381BF
:1011600044E050E008C0F50180819181BC0180E03D
:1011700090E042E050E0A40EB51EA1010E948B0950
:10118000D82ED2188FE7F82EF122F6FE0BC05EEFB4
:10119000F522D91438F4F4FE07C0F2FC05C08FEE36
:1011A000F82202C01D2D01C0192DF4FE0DC0FE0154
:1011B000ED0DF11D8081803319F499EEF92208C0FC
:1011C0001F5FF2FE05C003C08F2D867809F01F5FF8
:1011D0000F2DF3FC14C0F0FE0FC01E1510F09D2C57
:1011E0000BC09D2C9E0C911A1E2D06C080E290E033
:1011F000B3010E945F091F5F1E15C0F304C01E15D6
:1012000010F4E11A01C0EE2404FF0FC080E390E067
:10121000B3010E945F0902FF1DC001FD03C088E702
:1012200090E00EC088E590E00BC0802F867891F0AA
:1012300001FF02C08BE201C080E2F7FC8DE290E08A
:10124000B3010E945F0906C080E390E0B3010E94F1
:101250005F099A94D914C0F3DA94F101ED0DF11DF0
:10126000808190E0B3010E945F09DD20A9F706C0EC
:1012700080E290E0B3010E945F09EA94EE20C1F79A
:1012800043CEF30166817781CB012B96E2E10C948A
:101290002D07FC010590615070400110D8F7809532
:1012A00090958E0F9F1F0895FC0161507040019032
:1012B0000110D8F7809590958E0F9F1F08950F937A
:1012C0001F93CF93DF938C01EB018B8181FF1BC0B8
:1012D00082FF0DC02E813F818C819D8128173907A7
:1012E00064F4E881F9810193F983E88306C0E88515
:1012F000F985802F0995892B31F48E819F81019684
:101300009F838E8302C00FEF1FEFC801DF91CF9143
:101310001F910F910895FA01AA27283051F1203129
:1013200081F1E8946F936E7F6E5F7F4F8F4F9F4F79
:10133000AF4FB1E03ED0B4E03CD0670F781F891FBB
:101340009A1FA11D680F791F8A1F911DA11D6A0F89
:10135000711D811D911DA11D20D009F468943F913C
:101360002AE0269F11243019305D3193DEF6CF013B
:101370000895462F4770405D4193B3E00FD0C9F701
:10138000F6CF462F4F70405D4A3318F0495D31FD6E
:101390004052419302D0A9F7EACFB4E0A6959795C1
:1013A000879577956795BA95C9F700976105710597
:1013B00008959B01AC010A2E0694579547953795E1
:1013C0002795BA95C9F7620F731F841F951FA01D3B
:0613D0000895F894FFCF20
:1013D600687973742075707065723A202564256388
:1013E6004320200054656D70657261747572653AAC
:1013F60020256425634320200019001E00000000FC
:1014060000000000000001020203030303040404B9
:10141600040404040405050505050505050505057B
:10142600050505050506060606060606060606065B
:101436000606060606060606060606060606060646
:10144600060606060607070707070707070707072B
:101456000707070707070707070707070707070716
:101466000707070707070707070707070707070706
:1014760007070707070707070707070707070707F6
:1014860007070707070808080808080808080808DB
:1014960008080808080808080808080808080808C6
:1014A60008080808080808080808080808080808B6
:1014B60008080808080808080808080808080808A6
:1014C6000808080808080808080808080808080896
:1014D6000808080808080808080808080808080886
:1014E6000808080808080808080808080808080876
:1014F6000808080808080808080808080808080866
:06150600080808080800B7
:00000001FF
